{
  "_format": "hh-sol-artifact-1",
  "contractName": "Task",
  "sourceName": "contracts/Task.sol",
  "abi": [
    {
      "inputs": [
        {
          "internalType": "contract ISuperfluid",
          "name": "host",
          "type": "address"
        }
      ],
      "stateMutability": "payable",
      "type": "constructor"
    },
    {
      "inputs": [],
      "name": "allTasksCompleted",
      "outputs": [],
      "stateMutability": "nonpayable",
      "type": "function"
    },
    {
      "inputs": [],
      "name": "cfaV1",
      "outputs": [
        {
          "internalType": "contract ISuperfluid",
          "name": "host",
          "type": "address"
        },
        {
          "internalType": "contract IConstantFlowAgreementV1",
          "name": "cfa",
          "type": "address"
        }
      ],
      "stateMutability": "view",
      "type": "function"
    },
    {
      "inputs": [
        {
          "internalType": "address",
          "name": "addressToUpdate",
          "type": "address"
        }
      ],
      "name": "finishedTask",
      "outputs": [],
      "stateMutability": "nonpayable",
      "type": "function"
    },
    {
      "inputs": [],
      "name": "stateOfCompletion",
      "outputs": [
        {
          "components": [
            {
              "internalType": "string",
              "name": "task",
              "type": "string"
            },
            {
              "internalType": "bool",
              "name": "isCompleted",
              "type": "bool"
            },
            {
              "internalType": "address",
              "name": "ownerAddress",
              "type": "address"
            },
            {
              "internalType": "bool",
              "name": "isLead",
              "type": "bool"
            }
          ],
          "internalType": "struct Task.Subtask[]",
          "name": "",
          "type": "tuple[]"
        }
      ],
      "stateMutability": "view",
      "type": "function"
    }
  ],
  "bytecode": "0x608060405262030d4042620000159190620005ee565b600155604051620015673803806200156783398181016040528101906200003d919062000594565b60405180604001604052808273ffffffffffffffffffffffffffffffffffffffff1681526020018273ffffffffffffffffffffffffffffffffffffffff1663b6d200de7fa9214cc96615e0085d3bb077758db69497dc2dce3b2b1e97bc93c3d18d83efd36040518263ffffffff1660e01b8152600401620000bf9190620005d1565b60206040518083038186803b158015620000d857600080fd5b505afa158015620000ed573d6000803e3d6000fd5b505050506040513d601f19601f8201168201806040525081019062000113919062000568565b73ffffffffffffffffffffffffffffffffffffffff16815250600360008201518160000160006101000a81548173ffffffffffffffffffffffffffffffffffffffff021916908373ffffffffffffffffffffffffffffffffffffffff16021790555060208201518160010160006101000a81548173ffffffffffffffffffffffffffffffffffffffff021916908373ffffffffffffffffffffffffffffffffffffffff160217905550905050620001cf620001d660201b60201c565b5062000783565b600260405180608001604052806040518060400160405280600681526020017f7461736b2031000000000000000000000000000000000000000000000000000081525081526020016001151581526020017392d3578f3d9faf59b41117fb92cf1968554b059073ffffffffffffffffffffffffffffffffffffffff1681526020016000151581525090806001815401808255809150506001900390600052602060002090600202016000909190919091506000820151816000019080519060200190620002a59291906200048a565b5060208201518160010160006101000a81548160ff02191690831515021790555060408201518160010160016101000a81548173ffffffffffffffffffffffffffffffffffffffff021916908373ffffffffffffffffffffffffffffffffffffffff16021790555060608201518160010160156101000a81548160ff0219169083151502179055505050600260405180608001604052806040518060400160405280600681526020017f7461736b2032000000000000000000000000000000000000000000000000000081525081526020016000151581526020017303d28df4b4c3a4bb1ea5d0a518e4d045172a655973ffffffffffffffffffffffffffffffffffffffff1681526020016001151581525090806001815401808255809150506001900390600052602060002090600202016000909190919091506000820151816000019080519060200190620003fe9291906200048a565b5060208201518160010160006101000a81548160ff02191690831515021790555060408201518160010160016101000a81548173ffffffffffffffffffffffffffffffffffffffff021916908373ffffffffffffffffffffffffffffffffffffffff16021790555060608201518160010160156101000a81548160ff0219169083151502179055505050565b8280546200049890620006bb565b90600052602060002090601f016020900481019282620004bc576000855562000508565b82601f10620004d757805160ff191683800117855562000508565b8280016001018555821562000508579182015b8281111562000507578251825591602001919060010190620004ea565b5b5090506200051791906200051b565b5090565b5b80821115620005365760008160009055506001016200051c565b5090565b6000815190506200054b816200074f565b92915050565b600081519050620005628162000769565b92915050565b6000602082840312156200057b57600080fd5b60006200058b848285016200053a565b91505092915050565b600060208284031215620005a757600080fd5b6000620005b78482850162000551565b91505092915050565b620005cb816200065f565b82525050565b6000602082019050620005e86000830184620005c0565b92915050565b6000620005fb82620006b1565b91506200060883620006b1565b9250827fffffffffffffffffffffffffffffffffffffffffffffffffffffffffffffffff0382111562000640576200063f620006f1565b5b828201905092915050565b6000620006588262000691565b9050919050565b6000819050919050565b600062000676826200064b565b9050919050565b60006200068a826200064b565b9050919050565b600073ffffffffffffffffffffffffffffffffffffffff82169050919050565b6000819050919050565b60006002820490506001821680620006d457607f821691505b60208210811415620006eb57620006ea62000720565b5b50919050565b7f4e487b7100000000000000000000000000000000000000000000000000000000600052601160045260246000fd5b7f4e487b7100000000000000000000000000000000000000000000000000000000600052602260045260246000fd5b6200075a8162000669565b81146200076657600080fd5b50565b62000774816200067d565b81146200078057600080fd5b50565b610dd480620007936000396000f3fe608060405234801561001057600080fd5b506004361061004c5760003560e01c806371d6665a14610051578063d3112b2e1461006f578063d886c6ce1461008e578063e1c8510d14610098575b600080fd5b6100596100b4565b6040516100669190610a05565b60405180910390f35b610077610231565b604051610085929190610a27565b60405180910390f35b610096610283565b005b6100b260048036038101906100ad91906107ad565b61056d565b005b60606002805480602002602001604051908101604052809291908181526020016000905b82821015610228578382906000526020600020906002020160405180608001604052908160008201805461010b90610c4d565b80601f016020809104026020016040519081016040528092919081815260200182805461013790610c4d565b80156101845780601f1061015957610100808354040283529160200191610184565b820191906000526020600020905b81548152906001019060200180831161016757829003601f168201915b505050505081526020016001820160009054906101000a900460ff161515151581526020016001820160019054906101000a900473ffffffffffffffffffffffffffffffffffffffff1673ffffffffffffffffffffffffffffffffffffffff1673ffffffffffffffffffffffffffffffffffffffff1681526020016001820160159054906101000a900460ff161515151581525050815260200190600101906100d8565b50505050905090565b60038060000160009054906101000a900473ffffffffffffffffffffffffffffffffffffffff16908060010160009054906101000a900473ffffffffffffffffffffffffffffffffffffffff16905082565b6000805b60028054905081101561031c5760011515600282815481106102d2577f4e487b7100000000000000000000000000000000000000000000000000000000600052603260045260246000fd5b906000526020600020906002020160010160009054906101000a900460ff1615151415610309576001826103069190610b03565b91505b808061031490610c7f565b915050610287565b506002805490508114156104c1576103686040518060400160405280600f81526020017f73656e64206d6f6e6579206261636b00000000000000000000000000000000008152506106d6565b60006002476103779190610b59565b905060007392d3578f3d9faf59b41117fb92cf1968554b059073ffffffffffffffffffffffffffffffffffffffff16826040516103b3906109f0565b60006040518083038185875af1925050503d80600081146103f0576040519150601f19603f3d011682016040523d82523d6000602084013e6103f5565b606091505b5050905060007303d28df4b4c3a4bb1ea5d0a518e4d045172a655973ffffffffffffffffffffffffffffffffffffffff1683604051610433906109f0565b60006040518083038185875af1925050503d8060008114610470576040519150601f19603f3d011682016040523d82523d6000602084013e610475565b606091505b50509050806104b9576040517f08c379a00000000000000000000000000000000000000000000000000000000081526004016104b090610a72565b60405180910390fd5b50505061056a565b6104e2604051806060016040528060218152602001610d7e602191396106d6565b600047905060007392d3578f3d9faf59b41117fb92cf1968554b059073ffffffffffffffffffffffffffffffffffffffff1682604051610521906109f0565b60006040518083038185875af1925050503d806000811461055e576040519150601f19603f3d011682016040523d82523d6000602084013e610563565b606091505b5050905050505b50565b60005b6002805490508110156106d2578173ffffffffffffffffffffffffffffffffffffffff16600282815481106105ce577f4e487b7100000000000000000000000000000000000000000000000000000000600052603260045260246000fd5b906000526020600020906002020160010160019054906101000a900473ffffffffffffffffffffffffffffffffffffffff1673ffffffffffffffffffffffffffffffffffffffff1614156106bf57600160028281548110610658577f4e487b7100000000000000000000000000000000000000000000000000000000600052603260045260246000fd5b906000526020600020906002020160010160006101000a81548160ff0219169083151502179055506106be6040518060400160405280600481526020017f74727565000000000000000000000000000000000000000000000000000000008152506106d6565b5b80806106ca90610c7f565b915050610570565b5050565b61076c816040516024016106ea9190610a50565b6040516020818303038152906040527f41304fac000000000000000000000000000000000000000000000000000000007bffffffffffffffffffffffffffffffffffffffffffffffffffffffff19166020820180517bffffffffffffffffffffffffffffffffffffffffffffffffffffffff838183161783525050505061076f565b50565b60008151905060006a636f6e736f6c652e6c6f679050602083016000808483855afa5050505050565b6000813590506107a781610d66565b92915050565b6000602082840312156107bf57600080fd5b60006107cd84828501610798565b91505092915050565b60006107e2838361098d565b905092915050565b6107f381610b8a565b82525050565b600061080482610aa2565b61080e8185610ac5565b93508360208202850161082085610a92565b8060005b8581101561085c578484038952815161083d85826107d6565b945061084883610ab8565b925060208a01995050600181019050610824565b50829750879550505050505092915050565b61087781610b9c565b82525050565b61088681610bd2565b82525050565b61089581610bf6565b82525050565b60006108a682610aad565b6108b08185610ae1565b93506108c0818560208601610c1a565b6108c981610d55565b840191505092915050565b60006108df82610aad565b6108e98185610af2565b93506108f9818560208601610c1a565b61090281610d55565b840191505092915050565b600061091a602783610af2565b91507f4661696c656420746f207769746864726177206d6f6e65792066726f6d20636f60008301527f6e74726163742e000000000000000000000000000000000000000000000000006020830152604082019050919050565b6000610980600083610ad6565b9150600082019050919050565b600060808301600083015184820360008601526109aa828261089b565b91505060208301516109bf602086018261086e565b5060408301516109d260408601826107ea565b5060608301516109e5606086018261086e565b508091505092915050565b60006109fb82610973565b9150819050919050565b60006020820190508181036000830152610a1f81846107f9565b905092915050565b6000604082019050610a3c600083018561088c565b610a49602083018461087d565b9392505050565b60006020820190508181036000830152610a6a81846108d4565b905092915050565b60006020820190508181036000830152610a8b8161090d565b9050919050565b6000819050602082019050919050565b600081519050919050565b600081519050919050565b6000602082019050919050565b600082825260208201905092915050565b600081905092915050565b600082825260208201905092915050565b600082825260208201905092915050565b6000610b0e82610bc8565b9150610b1983610bc8565b9250827fffffffffffffffffffffffffffffffffffffffffffffffffffffffffffffffff03821115610b4e57610b4d610cc8565b5b828201905092915050565b6000610b6482610bc8565b9150610b6f83610bc8565b925082610b7f57610b7e610cf7565b5b828204905092915050565b6000610b9582610ba8565b9050919050565b60008115159050919050565b600073ffffffffffffffffffffffffffffffffffffffff82169050919050565b6000819050919050565b6000610bdd82610be4565b9050919050565b6000610bef82610ba8565b9050919050565b6000610c0182610c08565b9050919050565b6000610c1382610ba8565b9050919050565b60005b83811015610c38578082015181840152602081019050610c1d565b83811115610c47576000848401525b50505050565b60006002820490506001821680610c6557607f821691505b60208210811415610c7957610c78610d26565b5b50919050565b6000610c8a82610bc8565b91507fffffffffffffffffffffffffffffffffffffffffffffffffffffffffffffffff821415610cbd57610cbc610cc8565b5b600182019050919050565b7f4e487b7100000000000000000000000000000000000000000000000000000000600052601160045260246000fd5b7f4e487b7100000000000000000000000000000000000000000000000000000000600052601260045260246000fd5b7f4e487b7100000000000000000000000000000000000000000000000000000000600052602260045260246000fd5b6000601f19601f8301169050919050565b610d6f81610b8a565b8114610d7a57600080fd5b5056fe4e6f206d6f6e657920666f7220796f75206d6f6f6f6f746865726675636b6b6572a26469706673582212205f2feb2e4b6dec51b7184bcd25d364e421e183523b198ccf049393a1666b648d64736f6c63430008000033",
  "linkReferences": {},
  "deployedLinkReferences": {}
}